{
  "contractName": "Verify",
  "abi": [
    {
      "inputs": [],
      "payable": false,
      "stateMutability": "nonpayable",
      "type": "constructor"
    },
    {
      "constant": true,
      "inputs": [
        {
          "internalType": "uint256",
          "name": "",
          "type": "uint256"
        }
      ],
      "name": "caseAccounts",
      "outputs": [
        {
          "internalType": "uint256",
          "name": "",
          "type": "uint256"
        }
      ],
      "payable": false,
      "stateMutability": "view",
      "type": "function"
    },
    {
      "constant": false,
      "inputs": [
        {
          "internalType": "uint256",
          "name": "_id",
          "type": "uint256"
        },
        {
          "internalType": "string",
          "name": "_location",
          "type": "string"
        },
        {
          "internalType": "string",
          "name": "_hash",
          "type": "string"
        },
        {
          "internalType": "string",
          "name": "_detailHash",
          "type": "string"
        }
      ],
      "name": "setCase",
      "outputs": [],
      "payable": false,
      "stateMutability": "nonpayable",
      "type": "function"
    },
    {
      "constant": true,
      "inputs": [],
      "name": "getAllCases",
      "outputs": [
        {
          "internalType": "uint256[]",
          "name": "",
          "type": "uint256[]"
        }
      ],
      "payable": false,
      "stateMutability": "view",
      "type": "function"
    },
    {
      "constant": true,
      "inputs": [
        {
          "internalType": "uint256",
          "name": "_id",
          "type": "uint256"
        }
      ],
      "name": "getCase",
      "outputs": [
        {
          "internalType": "uint256",
          "name": "",
          "type": "uint256"
        },
        {
          "internalType": "string",
          "name": "",
          "type": "string"
        },
        {
          "internalType": "string",
          "name": "",
          "type": "string"
        },
        {
          "internalType": "string",
          "name": "",
          "type": "string"
        }
      ],
      "payable": false,
      "stateMutability": "view",
      "type": "function"
    }
  ],
  "bytecode": "0x608060405234801561001057600080fd5b506108dd806100206000396000f3fe608060405234801561001057600080fd5b506004361061004c5760003560e01c80636bd0d6f314610051578063a91a108014610244578063b9c1d46d146103ca578063fb40c22a1461040c575b600080fd5b6102426004803603608081101561006757600080fd5b81019080803590602001909291908035906020019064010000000081111561008e57600080fd5b8201836020820111156100a057600080fd5b803590602001918460018302840111640100000000831117156100c257600080fd5b91908080601f016020809104026020016040519081016040528093929190818152602001838380828437600081840152601f19601f8201169050808301925050505050505091929192908035906020019064010000000081111561012557600080fd5b82018360208201111561013757600080fd5b8035906020019184600183028401116401000000008311171561015957600080fd5b91908080601f016020809104026020016040519081016040528093929190818152602001838380828437600081840152601f19601f820116905080830192505050505050509192919290803590602001906401000000008111156101bc57600080fd5b8201836020820111156101ce57600080fd5b803590602001918460018302840111640100000000831117156101f057600080fd5b91908080601f016020809104026020016040519081016040528093929190818152602001838380828437600081840152601f19601f82011690508083019250505050505050919291929050505061046b565b005b6102706004803603602081101561025a57600080fd5b810190808035906020019092919050505061054b565b60405180858152602001806020018060200180602001848103845287818151815260200191508051906020019080838360005b838110156102be5780820151818401526020810190506102a3565b50505050905090810190601f1680156102eb5780820380516001836020036101000a031916815260200191505b50848103835286818151815260200191508051906020019080838360005b83811015610324578082015181840152602081019050610309565b50505050905090810190601f1680156103515780820380516001836020036101000a031916815260200191505b50848103825285818151815260200191508051906020019080838360005b8381101561038a57808201518184015260208101905061036f565b50505050905090810190601f1680156103b75780820380516001836020036101000a031916815260200191505b5097505050505050505060405180910390f35b6103f6600480360360208110156103e057600080fd5b810190808035906020019092919050505061078a565b6040518082815260200191505060405180910390f35b6104146107ab565b6040518080602001828103825283818151815260200191508051906020019060200280838360005b8381101561045757808201518184015260208101905061043c565b505050509050019250505060405180910390f35b60008060008681526020019081526020016000209050848160000181905550838160010190805190602001906104a2929190610803565b50828160020190805190602001906104bb929190610803565b50338160040160006101000a81548173ffffffffffffffffffffffffffffffffffffffff021916908373ffffffffffffffffffffffffffffffffffffffff16021790555081816003019080519060200190610517929190610803565b5060018590806001815401808255809150509060018203906000526020600020016000909192909190915055505050505050565b6000606080606060008086815260200190815260200160002060000154600080878152602001908152602001600020600101600080888152602001908152602001600020600201600080898152602001908152602001600020600301828054600181600116156101000203166002900480601f01602080910402602001604051908101604052809291908181526020018280546001816001161561010002031660029004801561063c5780601f106106115761010080835404028352916020019161063c565b820191906000526020600020905b81548152906001019060200180831161061f57829003601f168201915b50505050509250818054600181600116156101000203166002900480601f0160208091040260200160405190810160405280929190818152602001828054600181600116156101000203166002900480156106d85780601f106106ad576101008083540402835291602001916106d8565b820191906000526020600020905b8154815290600101906020018083116106bb57829003601f168201915b50505050509150808054600181600116156101000203166002900480601f0160208091040260200160405190810160405280929190818152602001828054600181600116156101000203166002900480156107745780601f1061074957610100808354040283529160200191610774565b820191906000526020600020905b81548152906001019060200180831161075757829003601f168201915b5050505050905093509350935093509193509193565b6001818154811061079757fe5b906000526020600020016000915090505481565b606060018054806020026020016040519081016040528092919081815260200182805480156107f957602002820191906000526020600020905b8154815260200190600101908083116107e5575b5050505050905090565b828054600181600116156101000203166002900490600052602060002090601f016020900481019282601f1061084457805160ff1916838001178555610872565b82800160010185558215610872579182015b82811115610871578251825591602001919060010190610856565b5b50905061087f9190610883565b5090565b6108a591905b808211156108a1576000816000905550600101610889565b5090565b9056fea265627a7a723158203e512bd6de3c9a8e2c09fca3a75d02097d2db04f17188787f18a472a553461c964736f6c63430005100032",
  "source": "pragma solidity  0.5.16;\n\ncontract Verify {\n    \n    struct CaseDetails {\n        uint caseID;\n        string location;\n        string ipfsHash;\n        string detailHash;\n        address accnt;\n        \n    }\n    \n    //address public owner ; \n    \n    constructor() public {\n        //owner = msg.sender;\n    }\n    \n    mapping (uint => CaseDetails) cases;\n    uint[] public caseAccounts;\n    \n    function setCase ( uint _id, string memory _location, string memory _hash, string memory _detailHash) public{\n        \n        CaseDetails  storage Case = cases[_id];\n        Case.caseID = _id;\n        Case.location = _location;\n        Case.ipfsHash = _hash;\n        Case.accnt = msg.sender;\n        Case.detailHash = _detailHash;\n        caseAccounts.push(_id);\n        \n    \n    }\n    \n     function getAllCases() view public returns(uint[] memory) {\n        return caseAccounts;\n    }\n    \n    function getCase(uint _id) view public returns (uint, string memory, string memory, string memory) {\n        return (cases[_id].caseID, cases[_id].location, cases[_id].ipfsHash, cases[_id].detailHash);\n    }\n}\n",
  "sourcePath": "/home/ady/Desktop/Verify/contracts/Verify.sol",
  "compiler": {
    "name": "solc",
    "version": "0.5.16+commit.9c3226ce.Emscripten.clang"
  },
  "schemaVersion": "3.1.0",
  "updatedAt": "2020-05-24T13:37:54.805Z",
  "networkType": "ethereum",
  "devdoc": {
    "methods": {}
  },
  "userdoc": {
    "methods": {}
  }
}